:100000000C94E3020C940B030C940B030C940B0361
:100010000C940B030C940B030C940B030C940B0328
:100020000C940B030C940B030C940B030C940B0318
:100030000C940B030C940B030C940B030C940B0308
:100040000C948C110C940B030C941F0B0C94F90A58
:100050000C940B030C940B030C940B030C940B03E8
:100060000C94830F0C940B0300000000003E5B4FC8
:100070005B3E3E6B4F6B3E1C3E7C3E1C183C7E3C08
:10008000181C577D571C1C5E7F5E1C00183C180016
:10009000FFE7C3E7FF0018241800FFE7DBE7FF30A6
:1000A000483A060E2629792926407F050507407F14
:1000B00005253F5A3CE73C5A7F3E1C1C08081C1C87
:1000C0003E7F14227F22145F5F005F5F06097F017D
:1000D0007F006689956A606060606094A2FFA29468
:1000E00008047E040810207E201008082A1C080836
:1000F0001C2A08081E101010100C1E0C1E0C303884
:100100003E3830060E3E0E06000000000000005F84
:1001100000000007000700147F147F14242A7F2AA0
:100120001223130864623649562050000807030062
:10013000001C2241000041221C002A1C7F1C2A08AE
:10014000083E080800807030000808080808000011
:1001500060600020100804023E5149453E00427F85
:10016000400072494949462141494D331814127FD4
:100170001027454545393C4A494931412111090774
:100180003649494936464949291E000014000000F5
:1001900040340000000814224114141414140041C7
:1001A00022140802015909063E415D594E7C121184
:1001B000127C7F494949363E414141227F414141BC
:1001C0003E7F494949417F090909013E4141517337
:1001D0007F0808087F00417F41002040413F017FA8
:1001E000081422417F404040407F021C027F7F0470
:1001F00008107F3E4141413E7F090909063E4151B9
:10020000215E7F09192946264949493203017F01A8
:10021000033F4040403F1F2040201F3F4038403FA9
:10022000631408146303047804036159494D4300BF
:100230007F4141410204081020004141417F0402F6
:10024000010204404040404000030708002054548D
:1002500078407F284444383844444428384444286B
:100260007F385454541800087E090218A4A49C78BE
:100270007F0804047800447D40002040403D007F1A
:100280001028440000417F40007C047804787C08FA
:100290000404783844444438FC18242418182424CE
:1002A00018FC7C08040408485454542404043F44B3
:1002B000243C4040207C1C2040201C3C4030403CE2
:1002C00044281028444C9090907C4464544C440042
:1002D00008364100000077000000413608000201A6
:1002E0000204023C2623263C1EA1A161123A404092
:1002F000207A38545455592155557941225454780F
:1003000042215554784020545579400C1E527212A7
:100310003955555559395454545939555454580030
:1003200000457C410002457D420001457C407D1234
:1003300011127DF0282528F07C5455450020545496
:100340007C547C0A097F4932494949323A44444441
:100350003A324A4848303A4141217A3A424020787C
:10036000009DA0A07D3D4242423D3D4040403D3C7D
:1003700024FF2424487E4943662B2FFC2F2BFF09A2
:1003800029F620C0887E0903205454794100004496
:100390007D413048484A32384040227A007A0A0A81
:1003A000727D0D19317D2629292F282629292926F4
:1003B00030484D4020380808080808080808382F39
:1003C00010C8ACBA2F102834FA00007B00000814C3
:1003D0002A142222142A14085500550055AA55AA99
:1003E00055AAFF55FF55FF000000FF00101010FF39
:1003F00000141414FF001010FF00FF1010F010F094
:10040000141414FC001414F700FF0000FF00FF1484
:1004100014F404FC141417101F10101F101F1414D0
:10042000141F00101010F0000000001F101010101A
:100430001F10101010F010000000FF10101010100E
:1004400010101010FF10000000FF140000FF00FF4C
:1004500000001F10170000FC04F4141417101714E8
:1004600014F404F40000FF00F7141414141414140A
:10047000F700F7141414171410101F101F1414147D
:10048000F4141010F010F000001F101F0000001FE7
:1004900014000000FC140000F010F01010FF10FF1A
:1004A000141414FF141010101F00000000F010FFAF
:1004B000FFFFFFFFF0F0F0F0F0FFFFFF0000000093
:1004C00000FFFF0F0F0F0F0F3844443844FC4A4A17
:1004D0004A347E02020606027E027E0263554941CC
:1004E000633844443C04407E201E2006027E020203
:1004F00099A5E7A5991C2A492A1C4C7201724C3017
:100500004A4D4D303048784830BC625A463D3E49ED
:100510004949007E0101017E2A2A2A2A2A44445F91
:10052000444440514A444040444A51400000FF0185
:1005300003E080FF000008086B6B08361236243693
:10054000060F090F060000181800000010100030F8
:1005500040FF0101001F01011E00191D1712003C80
:100560003C3C3C000000000000000000240027008C
:100570002A0000000000250028002B0000000000D9
:1005800023002600290004040404040404040202D5
:100590000202020203030303030301020408102002
:1005A000408001020408102001020408102000000D
:1005B0000008000201000003040700000000000022
:1005C00000009A14941411241FBECFEFD8E0DEBFB0
:1005D000CDBF23E0A4E0B2E001C01D92AC3FB20762
:1005E000E1F712E0A0E0B1E0E2EBF0E302C0059039
:1005F0000D92A430B107D9F712E0C2EED2E004C0E8
:100600002197FE010E943116C13ED107C9F70E9411
:1006100047120C944C180C940000FC01538D448D2F
:10062000252F30E0842F90E0821B930B541710F09D
:10063000CF96089501970895FC01918D828D9817AA
:1006400061F0828DDF01A80FB11D5D968C91928DB6
:100650009F5F9F73928F90E008958FEF9FEF0895B3
:10066000FC01918D828D981731F0828DE80FF11D7C
:10067000858D90E008958FEF9FEF0895FC01918D97
:10068000228D892F90E0805C9F4F821B91098F7390
:100690009927089589E692E00E943E0321E0892B84
:1006A00009F420E0822F0895FC01848DDF01A80F5A
:1006B000B11DA35ABF4F2C91848D90E001968F738A
:1006C0009927848FA689B7892C93A089B1898C91A9
:1006D00080648C93938D848D981306C00288F3896F
:1006E000E02D80818F7D80830895EF92FF920F939C
:1006F0001F93CF93DF93EC0181E0888F9B8D8C8DCE
:10070000981305C0E889F989808185FD24C0F62EFB
:100710000B8D10E00F5F1F4F0F731127E02E8C8D94
:10072000E8120CC00FB607FCFACFE889F98980817E
:1007300085FFF5CFCE010E945403F1CF8B8DFE01D2
:10074000E80FF11DE35AFF4FF0820B8FEA89FB8916
:100750008081806207C0EE89FF896083E889F9891A
:1007600080818064808381E090E0DF91CF911F9150
:100770000F91FF90EF900895CF93DF93EC01888D58
:100780008823C9F0EA89FB89808185FD05C0A88995
:10079000B9898C9186FD0FC00FB607FCF5CF80811B
:1007A00085FFF2CFA889B9898C9185FFEDCFCE0165
:1007B0000E945403E7CFDF91CF91089580E090E04D
:1007C000892B29F00E944A0381110C94000008959E
:1007D000FC014830510508F040C068307105E8F56B
:1007E0008589823059F08330A1F08130C1F487E0EF
:1007F00090E0841B950BAB01BC0111C087E090E039
:10080000DC01A61BB70BBD01DC01A41BB50BAD01C0
:1008100006C087E090E0861B970BBA01AC01695FC8
:100820007F4F67707727440F551FE40FF51F81E056
:1008300090E002C0880F991F6A95E2F7232B29F0F8
:10084000228D338D822B932B06C080959095228D1F
:10085000338D82239323938F828F08950895FC0113
:100860006370658B8481958126813781613039F091
:10087000633029F0918780873387228708953187F5
:1008800020879387828708952F923F924F925F929D
:100890006F927F928F929F92AF92BF92CF92DF9290
:1008A000EF92FF920F931F93CF93DF93CDB7DEB7F5
:1008B0006C970FB6F894DEBF0FBECDBF9C8F8B8FA9
:1008C0001B012A0118870F83FE82ED82CA82DC0198
:1008D00058964D915C9159974115510509F0B2C058
:1008E00018968D919C911997681779070CF096C10D
:1008F0001A968D919C911B97481659060CF08EC143
:10090000AC2CB12CCB01B6E0CB9E800D911D1124F7
:10091000181619060CF082C1C50133E0880F991F23
:100920003A95E1F7840D951D181619060CF076C15D
:10093000AB8DBC8D57968C91811103C0203B08F084
:100940002F5FAB8DBC8DED91FC9111970284F385E7
:10095000E02DCD012A8F09952A8DB5E02B9F9001BE
:100960001124610141011B82F901E219F309FA879F
:10097000E9879201285F3F4F3C872B873B813530C9
:1009800049F0E985FA85E80DF91DE859FF4F4491D2
:10099000498301C0198232011201598150FF13C0ED
:1009A000AB8DBC8DED91FC91BA81B13031F40484F2
:1009B000F585E02D2F81388519C00684F785E02D57
:1009C000EF80F8841EC0ED81FE812F813885E2170B
:1009D000F307F1F0AB8DBC8DED91FC91BA81B13094
:1009E00059F40484F585E02D2D813E81A301B401E5
:1009F0008B8D9C8D09950CC00684F785E02DED80CC
:100A0000FE8085019501A101B6018B8D9C8D099514
:100A1000E981E695E983FFEF6F1A7F0A2A0C3B1CF8
:100A20002B853C856216730609F0B7CF3B813F5F8B
:100A30003B834FEF841A940ACA0CDB1C363009F052
:100A40009DCFCAC0FA013496949132976591749102
:100A5000291BCB01B7E02B9F800D911D1124FA01BA
:100A6000259134913A8B298BFC0165907490FC019F
:100A7000329634913D83319644914B873296C4909F
:100A8000319614915A81523058F08C2C0C2C000C59
:100A90009908812F012E000C990B9C838B8304C035
:100AA0001C821B82812C912CAB8DBC8DED91FC9115
:100AB00011970284F385E02DCD010995BA81AB2E03
:100AC000B12C8A9CC0018B9C900D9A9C900D112496
:100AD000FC01E20DF31DF88BEF871982912C812C1C
:100AE000EC2DCC0CFF0B91012E0F3F1F3A8729876D
:100AF00061013D81C30ED11CA6014E0F5F1F5F8BAC
:100B00004E8BC201810F911D17FD9A95998F888F89
:100B10005B85851608F060C0882D90E04B815C8174
:100B2000480F591F4A9D90014B9D300D5A9D300D25
:100B30001124D901A40DB51DBE87AD87C984DA84FF
:100B40002F843888B981E985BE1BBB8B288D398DF0
:100B5000280F391F3D8B2C8B8B898C0D2E893F895B
:100B6000C216D30699F1877041F4C3010196E98951
:100B7000FA89E60DF71D94903C0197FE20C0AB8DDD
:100B8000BC8DED91FC91BA81B13061F40484F5859E
:100B9000E02D2F8138854C895D89B6018B8D9C8D28
:100BA00009950DC00684F785E02DEF80F884850156
:100BB00095014D855E85B1018B8D9C8D0995990CB4
:100BC000EFEFCE1ADE0A2A0C3B1CC6CF39814D81CD
:100BD000340F398383949CCFAB8DBC8DED91FC9108
:100BE00011970688F789E02DCD016C960FB6F89421
:100BF000DEBF0FBECDBFDF91CF911F910F91FF9050
:100C0000EF90DF90CF90BF90AF909F908F907F90AC
:100C10006F905F904F903F902F9009946C960FB615
:100C2000F894DEBF0FBECDBFDF91CF911F910F9122
:100C3000FF90EF90DF90CF90BF90AF909F908F90FC
:100C40007F906F905F904F903F902F900895AF925C
:100C5000BF92CF92EF92FF920F931F93CF93DF93A8
:100C6000EC01262F888D998D009709F042C06A30DB
:100C700069F42C898E859F8538E0239F800D911D16
:100C800011249F878E871D861C86ACC06D3009F4A9
:100C9000A9C08E898823C1F03C898C859D8546E05A
:100CA000349F800D911D112448855985841795071F
:100CB0005CF01D861C868E859F85E8E03E9F800D3A
:100CC000911D11249F878E87EA88FB8808891989DE
:100CD0004E855F856C857D85CC88CE010E9444045D
:100CE0002C898C859D85F6E02F9F800D911D112408
:100CF00041C06A3079F41D861C862C89FC01369629
:100D0000E4918E859F852E9F800D911D11249F87D4
:100D10008E8768C06D3009F465C0AC014C5F5F4FD1
:100D2000FA013491631708F45DC03196E491E61737
:100D300008F458C0FA014491362F341BFC01329656
:100D4000A590B490F7E03F9FA00CB11C1124F501D1
:100D5000329634913196E491332311F0E1110DC0B4
:100D6000F5013496E4912C898C859D85E29F800D58
:100D7000911D11249D878C8735C0F50135964491CE
:100D80005E89552311F16C89E32FF0E0E40FF11D2A
:100D900047FDFA956E9FD0016F9FB00D11244C85D1
:100DA0005D854A0F5B1FE885F9854E175F076CF07C
:100DB0001D861C86FC013696E4918E859F856E9F6C
:100DC000800D911D11249F878E87EA88FB880889F2
:100DD00019894E855F856C857D85CC88CE010E9402
:100DE0004404BECF81E090E0DF91CF911F910F913D
:100DF000FF90EF90CF90BF90AF9008956F927F9249
:100E00008F929F92AF92BF92CF92DF92EF92FF921A
:100E10000F931F93CF93DF93EC014B015A016901AC
:100E20003801E881F9810284F385E02D0995E88194
:100E3000F9810288F389E02D87019601A501B401AB
:100E4000CE010995E881F981A501460D571D415054
:100E500051090288F389E02D9601B401CE0109956C
:100E6000E881F9810088F189E02D9301A501B401A1
:100E7000CE010995E881F981C80CD91CB6016150F1
:100E800071090088F189E02D9301A501CE01099532
:100E9000E881F9810688F789E02DCE01DF91CF91B5
:100EA0001F910F91FF90EF90DF90CF90BF90AF9088
:100EB0009F908F907F906F900994CF92DF92EF92E6
:100EC000FF920F931F93CF93DF9300D000D000D0F9
:100ED000CDB7DEB76C01DC01ED91FC9162177307B1
:100EE00089F4041715072CF4942F852FA801092FD6
:100EF000182F041B150B98012F5F3F4F048CF58DA5
:100F0000E02D12C04017510709F5261737072CF4BA
:100F1000962F872FB901292F382F261B370B2F5FCC
:100F20003F4F068CF78DE02D8701C6010995269667
:100F30000FB6F894DEBF0FBECDBFDF91CF911F91EA
:100F40000F91FF90EF90DF90CF9008950284F3858A
:100F5000E02D2D833E834B835C8369837A830995DF
:100F6000D601ED91FC910488F589E02D2D813E811B
:100F70004B815C8169817A81C6010995D601ED9129
:100F8000FC910688F789E02DC60126960FB6F894E5
:100F9000DEBF0FBECDBFDF91CF911F910F91FF90AC
:100FA000EF90DF90CF900994EF92FF920F931F93F1
:100FB000DC01ED91FC9111971A960D911C911B97F4
:100FC00018962D913C91199700A0F1A1E02D7B017D
:100FD00040E050E060E070E009951F910F91FF90B4
:100FE000EF9008954F925F926F927F928F929F92AF
:100FF000AF92BF92CF92DF92EF92FF920F931F9327
:10100000CF93DF9300D0CDB7DEB76C015A01390121
:101010004801DC01ED91FC910284F385E02D6983A8
:101020007A8309956981462E7A81572E640C751C46
:10103000D601ED91FC91461457046CF40088F189B7
:10104000E02D87019401A501B201C6010995BFEF0A
:101050004B1A5B0AEDCF0688F789E02DC6010F9089
:101060000F90DF91CF911F910F91FF90EF90DF9044
:10107000CF90BF90AF909F908F907F906F905F9038
:101080004F900994AF92BF92CF92DF92EF92FF926E
:101090000F931F93CF93DF9300D000D0CDB7DEB76F
:1010A0005C016901DC01ED91FC910284F385E02D86
:1010B0004B835C8369837A830995D501ED91FC911B
:1010C00069817A819B012C0D3D1D215031090488D5
:1010D000F589E02D78014B815C818A01C501099574
:1010E000D501ED91FC910688F789E02DC5010F909F
:1010F0000F900F900F90DF91CF911F910F91FF9064
:10110000EF90DF90CF90BF90AF900994AF92BF92D5
:10111000CF92DF92EF92FF920F931F93CF93DF93C3
:1011200000D000D0CDB7DEB75C016901DC01ED91E4
:10113000FC910284F385E02D4B835C8369837A8381
:101140000995D501ED91FC914B815C81C40ED51EB2
:10115000B1E0CB1AD1080488F589E02D7801860129
:1011600069817A819B01C5010995D501ED91FC91B9
:101170000688F789E02DC5010F900F900F900F9012
:10118000DF91CF911F910F91FF90EF90DF90CF9063
:10119000BF90AF9009940895EF92FF920F931F9321
:1011A000DC01ED91FC9100A0F1A1E02D09951F91CA
:1011B0000F91FF90EF9008950F931F93DC01ED9135
:1011C000FC91068CF78DE02D09951F910F910895E4
:1011D0000F931F93DC01ED91FC91048CF58DE02DB4
:1011E00009951F910F910895DC01ED91FC91008408
:1011F000F185E02D099408952F923F924F925F92CE
:101200006F927F928F929F92AF92BF92CF92DF9216
:10121000EF92FF920F931F93CF93DF9300D01F9213
:10122000CDB7DEB74C017B836A836A015901170190
:101230009801241B350B37FF03C0319521953109E7
:10124000C5014A815B81841B950B97FF03C0919573
:101250008195910951E059838217930714F01982FF
:101260000BC09A2D8B2D5801092F182F9A818B8135
:10127000DB82CA82C92ED82E8A819B81A816B90624
:101280005CF49C2D8D2D6801092F182F9A818B817C
:10129000BB82AA82A92EB82E2501AA81BB814A1A37
:1012A0005B0A38016C187D0877FE03C07194619465
:1012B0007108720157FE03C0BFEFEB1AFB0AF594E9
:1012C000E794C016D1061CF00FEF1FEF1FC001E01E
:1012D00010E01CC0D401ED91FC91B9810484F58526
:1012E000E02D9101BB23C1F04A815B81B601C401AD
:1012F0000995E618F708F7FE04C0C00ED11EE40CED
:10130000F51CEA81FB813196FB83EA834A815B818C
:10131000A416B506FCF604C0A6016A817B81E7CF5E
:101320000F900F900F90DF91CF911F910F91FF9031
:10133000EF90DF90CF90BF90AF909F908F907F9075
:101340006F905F904F903F902F900895089580E0A8
:1013500090E008950F931F93CF93DF93C7E0D0E001
:101360000E94150C00E010E021E030E0A801BE0171
:101370008BE793E00E94E8030F5F1F4F08301105D1
:1013800099F70E94E80B64E670E080E090E00E942C
:101390004611219728F7C0E0D0E00E94150C00E02C
:1013A00010E021E030E0A801BE018BE793E00E944D
:1013B000E8030F5F1F4F0830110599F70E94E80BF3
:1013C00064E670E080E090E00E9446112196C8300B
:1013D000D10519F70E94150C0E94E80B80E0DF91FF
:1013E000CF911F910F910895862F642F0C94DA10DE
:1013F0000E942E18862F0C94B110862F642F0C9407
:101400000A112F923F924F925F926F927F928F922A
:101410009F92AF92BF92CF92DF92EF92FF921F9373
:10142000CF93DF93CDB7DEB72A970FB6F894DEBF20
:101430000FBECDBF40E050E06EEB71E086E093E080
:101440000E940F1210920502109204028AE0282EC8
:1014500082E0382EE12CF12C10E0412C512C32018D
:1014600043946E0127E0C20ED11C409104025091BA
:101470000502E4E1F3E087E090E0219131910E2C48
:1014800002C0369527950A94E2F7B9016170772773
:1014900053014201082E04C0880C991CAA1CBB1CD5
:1014A0000A94D2F720FF02C0182903C0282D2095E6
:1014B0001223460F571F019700F7509305024093E0
:1014C00004021A8219821C821B821E821D8266E01F
:1014D00073E0CE0101960E9430124AE0B601812FDE
:1014E00090E00E948915F60101900020E9F73197FC
:1014F000EC19FD09AD80BE803097C9F0AE0EBF1E5D
:10150000B501CE0101960E94D611882361F0298190
:101510003A818D819E81B601820F931F0E944518EA
:10152000BE82AD8204C0CE0101960E94FD11BE01B3
:101530006F5F7F4F86E093E00E94301289819A812D
:101540000E94CC161A8219821C821B821E821D8266
:1015500066E073E0CE0101960E943012AD80BE803D
:101560008FEFA81AB80AB501CE0101960E94D611D4
:101570008823D1F129813A818D819E8162E072E0D8
:10158000820F931F0E944518BE82AD82BE016F5F1D
:101590007F4F86E093E00E94301289819A810E94F9
:1015A000CC16F10111931F01FFEFEF1AFF0A28E09B
:1015B000E216F10409F059CF2A960FB6F894DEBF6F
:1015C0000FBECDBFDF91CF911F91FF90EF90DF90C5
:1015D000CF90BF90AF909F908F907F906F905F90D3
:1015E0004F903F902F900895CE0101960E94FD11DB
:1015F000CDCF1F920F920FB60F9211242F933F93CE
:101600004F935F936F937F938F939F93AF93BF930A
:10161000EF93FF9389E692E00E945403FF91EF91CC
:10162000BF91AF919F918F917F916F915F914F91FA
:101630003F912F910F900FBE0F901F9018951F9202
:101640000F920FB60F9211242F938F939F93EF93C6
:10165000FF93E0917902F0917A028081E0917F021C
:10166000F091800282FD12C09081809182028F5F92
:101670008F7320918302821751F0E0918202F0E093
:10168000E759FD4F958F8093820201C08081FF91C1
:10169000EF919F918F912F910F900FBE0F901F9000
:1016A00018950F931F930E9480116093710270939D
:1016B00072028093730290937402E0916902F09138
:1016C0006A020484F585E02D89E692E0099597FF8A
:1016D0001FC00E948011009171021091720220912E
:1016E000730230917402DC01CB01801B910BA20BC1
:1016F000B30B00916D0210916E0220916F02309138
:10170000700280179107A207B307B8F28FEF9FEF1F
:101710001F910F91089520915C0290915B022132FC
:1017200008F04AC0809138028111FCCF32E030933A
:10173000380231E0309337023FEF30933602109297
:10174000350220933402ABE3B2E044E152E0FA0107
:101750003E2F341B321718F43D913193F9CF10927C
:10176000130220911302990F922B909313029091E0
:101770001202913061F41092120290911302909330
:10178000BB009091BC0093FDF8CF95EC01C095EEA5
:101790009093BC00909138029230E1F39091360220
:1017A0009F3F79F080913602803241F0809136027D
:1017B000803331F084E005C081E003C082E001C0E5
:1017C00083E010923A0210925C021092390208955E
:1017D0000F931F93CF93DF938091A50391E0909394
:1017E000390280935B0210923A0210925C0260E030
:1017F0008DE592E00E94DB0EC5E9D3E08E016881A1
:101800008DE592E00E94DB0E2296F80161818DE564
:1018100092E00E94DB0EF3E0C53ADF0779F7DF9133
:10182000CF911F910F910C948B0BE5E9F3E011928E
:10183000119283E0E53AF807D1F70895009769F02F
:10184000FC0101900020E9F73197AF01481B590BCB
:10185000BC0189E692E00C94580F80E090E0089576
:101860008F929F92AF92BF920F931F93CF93DF936C
:10187000CDB7DEB7A1970FB6F894DEBF0FBECDBFD0
:1018800019A2423008F44AE08E010F5D1F4F842EEA
:10189000912CA12CB12CA50194010E940F16E62FCA
:1018A000B901CA0101501109EA3014F4E05D01C028
:1018B000E95CD801EC93232B242B252B61F7C8017D
:1018C0000E941E0CA1960FB6F894DEBF0FBECDBFCE
:1018D000DF91CF911F910F91BF90AF909F908F900C
:1018E0000895CF92DF92EF92FF92CF93DF936C0136
:1018F000990FEE08FF08F7FE1AC0E0916902F09117
:101900006A020190F081E02D6DE289E692E009958E
:10191000EC0166277727CB016C197D098E099F0999
:101920004AE00E94300C7C01EC0EFD1E06C04AE02D
:10193000C701B6010E94300C7C018CEB91E00E9443
:101940001E0C8E0D9F1DDF91CF91FF90EF90DF90C9
:10195000CF900895CF93DF93E6E0F3E04481558183
:101960006081718189E692E00E94580FEC018CEB56
:1019700091E00E941E0C8C0F9D1FDF91CF91089566
:10198000CF92DF92FF920F931F93CF93DF93F12CAF
:10199000C0E0D0E000E010E0CE01865F9D4F6C011A
:1019A0000115110511F0FF0C02C0F601F080F7FEE1
:1019B00008C021E030E0AE01B8018BE793E00E945F
:1019C000F4080F5F1F4F0830110551F72196C830FA
:1019D000D10501F7DF91CF911F910F91FF90DF901B
:1019E000CF9008952F923F924F925F926F927F9285
:1019F0009F92AF92BF92CF92DF92EF92FF920F939E
:101A00001F93CF93DF930E94801100916803109180
:101A1000690320916A0330916B03AB01BC01401B49
:101A2000510B620B730B8091740390917503A0E0CE
:101A3000B0E084179507A607B70710F0E12CA7C000
:101A4000C0E080917203C81760F4E0916E03F091DA
:101A50006F03EC0FF11D62E080810E940A11CF5FDD
:101A6000F0CFF12CE12C412C512C32014394809188
:101A70007303F81608F081C00F2D10E0E091700399
:101A8000F0917103E00FF11F61E080810E940A1163
:101A9000E0917003F0917103E00FF11F60E080812D
:101AA0000E94DA10D301C2010F2C04C0880F991FC5
:101AB000AA1FBB1F0A94D2F71C015C01A094B0942A
:101AC000912C80917203981608F040C0C92CD12C3B
:101AD000E0916E03F0916F03EC0DFD1D80810E947B
:101AE000B11041E0892B09F040E0E6012496FE01A7
:101AF000EE0FFF1FE45FFC4F20813181002E02C0FA
:101B0000369527950A94E2F72170421711F0EE24DA
:101B1000E39480916E0390916F03FC01EC0DFD1D29
:101B200080810E94B110CC0FDD1FC45FDC4F892B78
:101B300029F4888199818229932904C08881998117
:101B40008A219B21998388839394BBCFE091700372
:101B5000F0917103E00FF11F61E080810E94DA10C3
:101B60008091700390917103FC01E00FF11F60E020
:101B700080810E940A11F3947ACF0E9480116093B1
:101B800068037093690380936A0390936B038E2DAF
:101B9000DF91CF911F910F91FF90EF90DF90CF9049
:101BA000BF90AF909F907F906F905F904F903F90CD
:101BB0002F900895FF920F931F93CF93DF9300D040
:101BC00000D0CDB7DEB70E94510BFC0197FD11C0CC
:101BD0008D32910591F0C0970A9778F0E0916902F3
:101BE000F0916A020284F385E02D89E692E009957E
:101BF000EACF60E070E0CB014CC020E030E0A9010A
:101C0000F12CE130F105F1F0ED32F105C9F0CF0131
:101C1000C0970A97B8F4AAE0B0E00E94BE158F0101
:101C2000FF0F220B330BDC01CB01800F911FA21F92
:101C3000B31F9C01AD01205331094109510902C074
:101C4000FF24F394E0916902F0916A020284F38523
:101C5000E02D89E692E029833A834B835C830995E2
:101C60000E94510BFC01C09729813A814B815C8114
:101C70000A9738F2E130F10521F2FF2041F06627A2
:101C80007727CB01621B730B840B950B02C0CA0133
:101C9000B9010F900F900F900F90DF91CF911F918E
:101CA0000F91FF90089585ED8093BC008091BC005A
:101CB00084FDFCCF1092380208954091D303262F63
:101CC00030E0240F311D21323105DCF4209138023F
:101CD0002430C9F4FC0180E090E0861758F430917C
:101CE000D3032191DC01AF54BC4FA30FB11D2C9342
:101CF0000196F3CF8091D303680F6093D30380E004
:101D0000089581E0089582E00895089581E090E0CB
:101D10003091A7032091A603321710F480E090E0E1
:101D200091958195910908958091A7039091A603BB
:101D3000891730F48F5F8093A70380E090E00895C7
:101D40008FEF9FEF08958091A60390E02091A70365
:101D5000821B91090895CF92DF92EF92FF920F9329
:101D60001F93CF93DF937C01262F972F8A018091B9
:101D70003902882391F0C62FD72F6E01C40ED51ECD
:101D8000CC15DD0571F06991D701ED91FC910190C1
:101D9000F081E02DC7010995F3CF642F822F0E94B7
:101DA0005D0EC801DF91CF911F910F91FF90EF90D1
:101DB000DF90CF900895CF93DF931F92CDB7DEB71A
:101DC0006983209139022223D1F020915C022032D4
:101DD00040F021E030E0FC013383228380E090E09A
:101DE00015C080913A02E82FF0E0E55CFD4F998143
:101DF00090838F5F80933A0280935C0205C061E01C
:101E0000CE0101960E945D0E81E090E00F90DF917F
:101E1000CF910895833081F028F4813099F0823099
:101E2000A1F008958730A9F08830B9F08430D1F45A
:101E3000809180008F7D03C0809180008F77809398
:101E40008000089584B58F7702C084B58F7D84BDEE
:101E500008958091B0008F7703C08091B0008F7D8E
:101E60008093B00008953FB7F8948091AD039091AE
:101E7000AE03A091AF03B091B00326B5A89B05C0F7
:101E80002F3F19F00196A11DB11D3FBFBA2FA92FF9
:101E9000982F8827820F911DA11DB11DBC01CD0176
:101EA00042E0660F771F881F991F4A95D1F7089562
:101EB000CF92DF92EF92FF920F931F93CF93DF9316
:101EC0006C017A018B01C0E0D0E0CE15DF0589F00E
:101ED000D8016D918D01D601ED91FC910190F081B9
:101EE000E02DC6010995892B11F47E0102C02196CF
:101EF000ECCFC701DF91CF911F910F91FF90EF9031
:101F0000DF90CF9008951F920F920FB60F92112479
:101F10002F933F934F935F936F937F938F939F93F1
:101F2000AF93BF93EF93FF938091B900887F803682
:101F300009F49CC068F5883209F45BC090F48031E4
:101F400009F454C038F4882309F4F6C0883009F441
:101F50004DC0F6C0883109F44CC0803209F45DC030
:101F6000EFC0803409F468C048F4803309F455C0E8
:101F7000883309F0E5C080933602D8C0803509F473
:101F80004FC0883509F45DC0883409F0D9C0D6C087
:101F9000883909F4C7C0A8F4883709F467C038F451
:101FA000883609F463C0803709F460C0C9C0883836
:101FB00009F4B8C0803909F45FC0803809F0C0C0A6
:101FC0005BC0803B09F486C038F4803A09F466C0EF
:101FD000883A09F47FC0B4C0803C09F4A7C0883CAB
:101FE00009F4A4C0883B09F48AC0AAC080911302F6
:101FF00010C09091350280913402981770F5E091ED
:10200000350281E08E0F80933502F0E0EC5EFD4FEB
:1020100080818093BB0085EC86C0809336028EC0A1
:10202000E091350281E08E0F809335028091BB00F4
:10203000F0E0EC5EFD4F8083909135028091340298
:102040006EC0E091350281E08E0F80933502809161
:10205000BB00F0E0EC5EFD4F808380913702811180
:102060006DC081E08093120284EA61C083E08093B6
:1020700038021092F703CFCF8091F703803208F037
:1020800051C0E091F70381E08E0F8093F7038091B8
:10209000BB00F0E0E952FC4F8083BDCF85EC80931C
:1020A000BC00109238028091F703803230F4E09146
:1020B000F703F0E0E952FC4F10826091F70370E003
:1020C000E091D503F091D60387ED93E00995109246
:1020D000F70336C084E0809338021092D403109244
:1020E000D303E091D103F091D20309958091D303FA
:1020F000811105C081E08093D3031092B103E09178
:10210000D40381E08E0F8093D403F0E0EF54FC4FB2
:1021100080818093BB009091D4038091D303981762
:1021200008F479CF85E88093BC000AC085EC8093E1
:10213000BC001092380204C0109236020E94530E66
:10214000FF91EF91BF91AF919F918F917F916F918F
:102150005F914F913F912F910F900FBE0F901F9065
:102160001895CF93DF93282F30E0F901E255FA4F0D
:102170008491F901E656FA4FD491F901EA57FA4FE2
:10218000C491CC2391F081110E940A0FEC2FF0E052
:10219000EE0FFF1FE458FA4FA591B491EC91ED2397
:1021A00081E090E021F480E002C080E090E0DF91E7
:1021B000CF9108951F93CF93DF93282F30E0F9013B
:1021C000E255FA4F8491F901E656FA4FD491F9019C
:1021D000EA57FA4FC491CC23C9F0162F81110E94FF
:1021E0000A0FEC2FF0E0EE0FFF1FEE58FA4FA5910B
:1021F000B4918FB7F894111105C09C91ED2FE09523
:10220000E92302C0EC91ED2BEC938FBFDF91CF91CE
:102210001F910895CF93DF9390E0FC01E656FA4FAB
:102220002491FC01EA57FA4F8491882361F190E0F0
:10223000880F991FFC01E859FA4FC591D491FC0110
:10224000EE58FA4FA591B491611109C09FB7F89467
:102250008881209582238883EC912E230BC06230E5
:1022600061F49FB7F8943881822F80958323888307
:10227000EC912E2B2C939FBF06C08FB7F894E8816A
:102280002E2B28838FBFDF91CF9108958F929F923D
:10229000AF92BF92CF92DF92EF92FF926B017C01DF
:1022A0000E94330F4B015C01C114D104E104F1041D
:1022B000F1F00E94330FDC01CB0188199909AA09BA
:1022C000BB09883E9340A105B10570F321E0C21A15
:1022D000D108E108F10888EE880E83E0981EA11C61
:1022E000B11CC114D104E104F10419F7DDCFFF9052
:1022F000EF90DF90CF90BF90AF909F908F90089518
:102300002FB7F8946091A9037091AA038091AB0351
:102310009091AC032FBF08951F920F920FB60F92AA
:1023200011242F933F938F939F93AF93BF938091EB
:10233000A9039091AA03A091AB03B091AC03309193
:10234000A80323E0230F2D3720F40196A11DB11D12
:1023500005C026E8230F0296A11DB11D2093A803F6
:102360008093A9039093AA03A093AB03B093AC030B
:102370008091AD039091AE03A091AF03B091B003F3
:102380000196A11DB11D8093AD039093AE03A09360
:10239000AF03B093B003BF91AF919F918F913F91E5
:1023A0002F910F900FBE0F901F9018950F931F93B2
:1023B000CF93DF93EC0188819981009729F02A81DE
:1023C0003B812617370788F48B016F5F7F4F0E9490
:1023D0006417009761F0998388831B830A832C819B
:1023E0003D81232B11F4FC01108281E001C080E0CB
:1023F000DF91CF911F910F910895CF93DF93EC015F
:1024000088819981009711F00E94CC161982188258
:102410001D821C821B821A82DF91CF910895EF9258
:10242000FF920F931F93CF93DF93EC017B018A01FF
:10243000BA010E94D611811104C0CE010E94FD1183
:1024400007C01D830C83B701888199810E944518BC
:10245000CE01DF91CF911F910F91FF90EF900895E2
:10246000CF93DF93EC01FB018617970761F0608142
:1024700071816115710529F0448155810E940F1207
:1024800002C00E94FD11CE01DF91CF910895789492
:1024900084B5826084BD84B5816084BD85B5826069
:1024A00085BD85B5816085BD80916E00816080931A
:1024B0006E00109281008091810082608093810083
:1024C0008091810081608093810080918000816093
:1024D000809380008091B10084608093B1008091EE
:1024E000B00081608093B00080917A008460809316
:1024F0007A0080917A00826080937A0080917A00DD
:10250000816080937A0080917A00806880937A005D
:102510001092C100E0917902F0917A0282E080830A
:10252000E0917502F09176021082E0917702F091CD
:10253000780280E1808310928102E0917D02F09127
:102540007E0286E08083E0917B02F0917C028081B4
:1025500080618083E0917B02F0917C0280818860C1
:102560008083E0917B02F0917C028081806880838F
:10257000E0917B02F0917C0280818F7D808380EBF3
:1025800091E00E941E0C8CEB91E00E941E0C64E610
:1025900070E080E090E00E9446118AE090E0909325
:1025A00075038093740380ED97E090937703809395
:1025B000760380E78093A5031092A7031092A603E9
:1025C00010923A0210925C0210923802C1E0C0935D
:1025D00037021092120261E082E10E94DA1061E09B
:1025E00083E10E94DA108091B9008E7F8093B90058
:1025F0008091B9008D7F8093B90088E48093B80002
:1026000085E48093BC008091A503C0933902809338
:102610005B0210923A0210925C0261E28DE592E058
:102620000E94DB0E0E948B0B8091A503C0933902A0
:1026300080935B0210923A0210925C0261E88DE591
:1026400092E00E94DB0E0E948B0B8091A503C09349
:10265000390280935B0210923A0210925C026FEE94
:102660008DE592E00E94DB0E0E948B0B63E08BE70E
:1026700093E00E942F040E94150C0E94E80B0E9418
:10268000F20C0E94010A0E94AA0980910402909112
:10269000050203970CF054C00E94F20C8823A9F3A2
:1026A0000E94010A9CE0E92E93E0F92E00E010E080
:1026B000C0E0D0E0F701808591850C2E02C0969590
:1026C00087950A94E2F780FF08C021E030E0AE0170
:1026D000B8018BE793E00E94E8030E94E80B219683
:1026E000C830D10539F70F5F1F4F22E0E20EF11C11
:1026F00008301105E9F68091040290910502892BBA
:1027000021F60E94150C0E94E80BBFCF80910A03AE
:1027100090910B03892B01F50E94F20C882381F024
:102720000E94010A0E94150C0E94C00C0E94E80B36
:102730000E94AA0C80910402909105020E94710CE3
:102740008091040290910502419704F3EAE0F2E0DF
:1027500023EC30E093EC0BC06FEB71E0809106034B
:10276000909107030E943C18892BB1F6EFCF80812E
:10277000A901481B51091416150624F4492F481BBA
:10278000842F01C0835C819382E0E231F80779F7FE
:102790000E94150C0E94C00C0E94E80B03EC10E094
:1027A00083ECF82E80910A0390910B03892B41F55D
:1027B0000E94F20C8823B1F30E94010AEAE0F2E0E1
:1027C00080819801281B31091216130624F49F2DCD
:1027D000981B892F01C0835C819322E0E231F207CC
:1027E00079F70E94150C0E94C00C0E94E80B0E9411
:1027F000AA0C80910402909105020E94710CD2CF24
:10280000C0910603D091070362ED71E0CE010E94F2
:102810003C18892B39F06FEB71E0CE010E943C1817
:10282000892B31F60E94AA09C8E0D0E089E692E03F
:102830000E943E03181619060CF04CC06AE070E0C6
:1028400080E090E00E94461189E692E00E941C031D
:10285000833619F40E94150C3AC08F36C1F50E94D8
:10286000150C0E94DA0D6B017C010E94DA0D9601B5
:10287000215031092830310578F4AB01415051091C
:102880004830510548F4BE016C197D0921E030E063
:102890008BE793E00E94E8030E94DA0D6B017C0154
:1028A0000E94DA0D9601215031092830310578F463
:1028B000AB01415051094830510548F4BE016C1933
:1028C0007D0921E030E08BE793E00E94E8030E945D
:1028D000E80BACCF0E94F20C882319F10E94010A88
:1028E0000E948011009106021091070220910802B7
:1028F00030910902601B710B820B930B4AE00E941E
:10290000300C8CEB91E00E941E0C0E94AA0C0E94DD
:1029100080116093060270930702809308029093DF
:1029200009020E94DE0382CF809106039091070383
:102930000C94CC161092600210925F0288EE93E025
:10294000A0E0B0E08093610290936202A0936302E2
:10295000B09364022AE531E030935E0220935D0279
:1029600010926C0210926B0280936D0290936E0233
:10297000A0936F02B09370028CE691E090936A028C
:102980008093690285EC90E09093760280937502C3
:1029900084EC90E0909378028093770280EC90E052
:1029A00090937A028093790281EC90E090937C027C
:1029B00080937B0282EC90E090937E0280937D0274
:1029C00086EC90E09093800280937F0210928202C6
:1029D00010928302109284021092850210927E035C
:1029E00010927D0388E090E09093800380937F03B2
:1029F0009093820380938103909384038093830355
:102A0000909386038093850310929003109288031D
:102A10001092870310928A031092890381E08093B9
:102A20008F032FEF3FEF30938E0320938D0330936E
:102A30008C0320938B038093910310929203109246
:102A400094031092930388E891E090937C03809321
:102A50007B0310920E031092120310921103109236
:102A600013038EE791E090930D0380930C0380E0B5
:102A700090E0FC01E45FFC4F148E10A2178E11A2AF
:102A800006968C339105A9F788E091E090936F0347
:102A900080936E0380E091E09093710380937003C4
:102AA00088E0809372038093730380E191E09093B8
:102AB0006D0380936C038AE090E09093750380939C
:102AC000740384EF91E090937703809376031092E0
:102AD0007A0310927903109268031092690310929E
:102AE0006A0310926B0310927803109207031092FE
:102AF0000603109209031092080310920B03109220
:102B00000A0340E150E063EF71E086E093E00C944B
:102B10000F12BB274A3031F4992322F4BDE290957D
:102B200081959F4F0C949515BB27FB015527AA272C
:102B3000880F991FAA1FA41710F0A41B839550514A
:102B4000B9F7A05DAA3308F0A95DA193009779F7C2
:102B5000B111B1931192CB010C94AE15DC01FC01C3
:102B6000672F71917723E1F7329704C07C916D93C1
:102B700070836291AE17BF07C8F308950E940016D4
:102B8000A59F900DB49F900DA49F800D911D1124C1
:102B900008952F923F924F925F926F927F928F9201
:102BA0009F92AF92BF92CF92DF92EF92FF920F93DC
:102BB0001F93CF93DF93CDB7DEB7CA1BDB0B0FB6E6
:102BC000F894DEBF0FBECDBF09942A8839884888A3
:102BD0005F846E847D848C849B84AA84B984C88439
:102BE000DF80EE80FD800C811B81AA81B981CE0F30
:102BF000D11D0FB6F894DEBF0FBECDBFED01089515
:102C0000A29FB001B39FC001A39F700D811D11242D
:102C1000911DB29F700D811D1124911D0895A1E297
:102C20001A2EAA1BBB1BFD010DC0AA1FBB1FEE1F46
:102C3000FF1FA217B307E407F50720F0A21BB30B91
:102C4000E40BF50B661F771F881F991F1A9469F70D
:102C500060957095809590959B01AC01BD01CF0169
:102C60000895EE0FFF1F0590F491E02D0994CF9386
:102C7000DF938230910510F482E090E0E091FA0356
:102C8000F091FB0320E030E0C0E0D0E0309711F19C
:102C90004081518148175907C0F04817590761F41E
:102CA00082819381209719F09B838A832BC0909314
:102CB000FB038093FA0326C02115310519F0421752
:102CC000530718F49A01BE01DF01EF010280F3817E
:102CD000E02DDCCF2115310509F1281B390B2430FB
:102CE000310590F412968D919C91139761157105A1
:102CF00021F0FB019383828304C09093FB038093B4
:102D0000FA03FD01329644C0FD01E20FF31F8193E7
:102D10009193225031092D933C933AC02091F803AE
:102D20003091F903232B41F420915201309153014A
:102D30003093F9032093F803209150013091510111
:102D40002115310541F42DB73EB740915401509102
:102D50005501241B350BE091F803F091F903E217BC
:102D6000F307A0F42E1B3F0B2817390778F0AC01AE
:102D70004E5F5F4F2417350748F04E0F5F1F50938B
:102D8000F9034093F8038193919302C0E0E0F0E0EF
:102D9000CF01DF91CF9108950F931F93CF93DF93CE
:102DA000009709F48CC0FC013297138212820091C3
:102DB000FA031091FB030115110581F42081318183
:102DC000820F931F2091F8033091F90328173907D8
:102DD00079F5F093F903E093F80371C0D80140E06E
:102DE00050E0AE17BF0750F412962D913C91139707
:102DF000AD012115310509F1D901F3CF9D01DA01AA
:102E00003383228360817181860F971F8217930716
:102E100069F4EC0128813981260F371F2E5F3F4F5F
:102E2000318320838A819B8193838283452B29F47C
:102E3000F093FB03E093FA0342C01396FC93EE93E6
:102E40001297ED01499159919E01240F351FE21708
:102E5000F30771F480819181840F951F029611967A
:102E60009C938E938281938113969C938E93129759
:102E7000E0E0F0E0D80112968D919C9113970097B5
:102E800019F0F8018C01F6CF8D919C9198012E5F7D
:102E90003F4F820F931F2091F8033091F9032817B9
:102EA000390769F4309729F41092FB031092FA0362
:102EB00002C0138212821093F9030093F803DF918A
:102EC000CF911F910F910895A0E0B0E0EAE6F7E1FD
:102ED0000C94CD15EC01009721F4CB010E9437161C
:102EE000B8C0FC01E60FF71F9C0122503109E21720
:102EF000F30708F4ACC0D9010D911C911197061786
:102F00001707B0F00530110508F49FC0C8010497F9
:102F10008617970708F499C002501109061B170B72
:102F2000019311936D937C93CF010E94CC168DC0B9
:102F30005B01A01AB10A4C01800E911EA091FA0308
:102F4000B091FB0340E050E0E12CF12C109709F424
:102F50004AC0A815B905D1F56D907C901197630111
:102F600082E0C80ED11CCA14DB0480F1A3014A1907
:102F70005B096A0182E0C80ED11C1296BC901297C0
:102F80001396AC91B5E0CB16D10440F0B282A38386
:102F900051834083D9016D937C930AC00E5F1F4F0C
:102FA000C301800F911FF90191838083EB2DFA2FCC
:102FB000E114F10431F0D7011396FC93EE931297CC
:102FC00044C0F093FB03E093FA033FC08D919C91C2
:102FD00011974817590708F4AC017D0112960D901E
:102FE000BC91A02DB3CF8091F8039091F90388157F
:102FF0009905E1F446175707C8F480915001909164
:103000005101009741F48DB79EB740915401509102
:103010005501841B950BE817F907C8F4F093F903E1
:10302000E093F803F901718360830FC0CB010E9424
:1030300037167C01009759F0A801BE010E94331891
:10304000CE010E94CC16C70104C0CE0102C080E0B0
:1030500090E0CDB7DEB7EEE00C94E91581E090E0AA
:10306000F8940C944C18FB01DC0102C001900D9205
:1030700041505040D8F70895FB01DC018D9101903B
:1030800080190110D9F3990B0895FB01DC0101901F
:103090000D920020E1F7089512E0C2EED2E004C0E4
:1030A000FE010E9431162196C33ED107C9F7F8945C
:0230B000FFCF50
:1030B2000D02030411100F0E0C0B0A090807060576
:1030C2003132333435363738616263646566676836
:1030D20041424344454647482642237B282D425FCE
:1030E200696A6B6C6D6E6F70494A4B4C4D4E4F5016
:1030F2007172737475767778515253545556575886
:103102000000FC03800000000000DB0EAB0EA709EC
:10311200850EA30E940E860E000000007503580F54
:103122000D03BC033E031C03300300000000FD0935
:10313200F409FA09000000002706580FA709A6099A
:10314200E803FB08F408CC08E808DC08FC08CB0814
:103152002F042E0486084208F207D4075D07FE06F4
:1031620048454C4C4F20574F524C44000D0A0030FA
:103172002E302E302E32342E32342E302E302E304F
:103182002E003139352E3139352E3139352E31393E
:10319200352E3139352E3139352E3139352E3139F9
:1031A200352E00302E302E302E302E302E302E3056
:0431B2002E302E008D
:00000001FF
