:100000000C94E3020C940B030C940B030C940B0361
:100010000C940B030C940B030C940B030C940B0328
:100020000C940B030C940B030C940B030C940B0318
:100030000C940B030C940B030C940B030C940B0308
:100040000C94530A0C940B030C94340B0C940E0B6D
:100050000C940B030C940B030C940B030C940B03E8
:100060000C940C060C940B030000000023002600E7
:10007000290004040404040404040202020202022B
:10008000030303030303010204081020408001025C
:1000900004081020010204081020000000080002DB
:1000A0000100000304070000000000000000000041
:1000B0000000240027002A0000000000250028007E
:1000C0002B0000000000003E5B4F5B3E3E6B4F6B21
:1000D0003E1C3E7C3E1C183C7E3C181C577D571C29
:1000E0001C5E7F5E1C00183C1800FFE7C3E7FF00A2
:1000F00018241800FFE7DBE7FF30483A060E2629F0
:10010000792926407F050507407F05253F5A3CE7B2
:100110003C5A7F3E1C1C08081C1C3E7F14227F2278
:10012000145F5F005F5F06097F017F006689956A43
:10013000606060606094A2FFA29408047E040810CE
:10014000207E201008082A1C08081C2A08081E10F7
:100150001010100C1E0C1E0C30383E3830060E3EAF
:100160000E06000000000000005F0000000700070E
:1001700000147F147F14242A7F2A12231308646238
:1001800036495620500008070300001C2241000099
:1001900041221C002A1C7F1C2A08083E08080080F7
:1001A000703000080808080800006060002010088F
:1001B00004023E5149453E00427F40007249494990
:1001C000462141494D331814127F102745454539C2
:1001D0003C4A4949314121110907364949493646C6
:1001E0004949291E000014000000403400000008A6
:1001F0001422411414141414004122140802015949
:1002000009063E415D594E7C1211127C7F494949D5
:10021000363E414141227F4141413E7F494949416A
:100220007F090909013E414151737F0808087F0099
:10023000417F41002040413F017F081422417F401F
:100240004040407F021C027F7F0408107F3E4141F6
:10025000413E7F090909063E4151215E7F09192966
:1002600046264949493203017F01033F4040403F50
:100270001F2040201F3F4038403F63140814630391
:10028000047804036159494D43007F414141020410
:10029000081020004141417F040201020440404017
:1002A0004040000307080020545478407F2844440D
:1002B000383844444428384444287F385454541827
:1002C00000087E090218A4A49C787F080404780022
:1002D000447D40002040403D007F10284400004104
:1002E0007F40007C047804787C0804047838444417
:1002F0004438FC1824241818242418FC7C0804040E
:1003000008485454542404043F44243C4040207C76
:100310001C2040201C3C4030403C44281028444CC9
:100320009090907C4464544C440008364100000096
:10033000770000004136080002010204023C262337
:10034000263C1EA1A161123A4040207A38545455EF
:1003500059215555794122545478422155547840B9
:1003600020545579400C1E52721239555555593941
:100370005454545939555454580000457C41000296
:10038000457D420001457C407D1211127DF02825FB
:1003900028F07C545545002054547C547C0A097F35
:1003A0004932494949323A4444443A324A48483049
:1003B0003A4141217A3A42402078009DA0A07D3DFB
:1003C0004242423D3D4040403D3C24FF2424487E83
:1003D0004943662B2FFC2F2BFF0929F620C0887E6E
:1003E000090320545479410000447D413048484A73
:1003F00032384040227A007A0A0A727D0D19317D26
:100400002629292F28262929292630484D402038F9
:100410000808080808080808382F10C8ACBA2F10B8
:100420002834FA00007B000008142A142222142A1F
:1004300014085500550055AA55AA55AAFF55FF5551
:10044000FF000000FF00101010FF00141414FF0044
:100450001010FF00FF1010F010F0141414FC001422
:1004600014F700FF0000FF00FF1414F404FC141440
:1004700017101F10101F101F1414141F001010103D
:10048000F0000000001F101010101F10101010F0CE
:1004900010000000FF101010101010101010FF10AE
:1004A000000000FF140000FF00FF00001F101700F5
:1004B00000FC04F414141710171414F404F40000CE
:1004C000FF00F714141414141414F700F714141480
:1004D000171410101F101F141414F4141010F0101F
:1004E000F000001F101F0000001F14000000FC148B
:1004F0000000F010F01010FF10FF141414FF14107F
:1005000010101F00000000F010FFFFFFFFFFF0F0D1
:10051000F0F0F0FFFFFF0000000000FFFF0F0F0FE3
:100520000F0F3844443844FC4A4A4A347E020206DB
:1005300006027E027E0263554941633844443C040E
:10054000407E201E2006027E020299A5E7A5991C86
:100550002A492A1C4C7201724C304A4D4D303048A9
:10056000784830BC625A463D3E494949007E010107
:10057000017E2A2A2A2A2A44445F444440514A449C
:100580004040444A51400000FF0103E080FF00006A
:1005900008086B6B083612362436060F090F060062
:1005A0000018180000001010003040FF0101001F6B
:1005B00001011E00191D1712003C3C3C3C000000CC
:1005C00000009D12761611241FBECFEFD8E0DEBFCB
:1005D000CDBF24E0AEE4B2E001C01D92AA38B2075C
:1005E000E1F712E0A0E0B1E0E8E9F2E302C0059033
:1005F0000D92AE34B107D9F712E0C2EED2E004C0DA
:100600002197FE010E942417C13ED107C9F70E941D
:100610008C130C943F190C94000085ED8093BC0062
:100620008091BC0084FDFCCF10925A020895409145
:10063000CA03262F30E0240F311D21323105DCF4AE
:1006400020915A022430C9F4FC0180E090E0861722
:1006500058F43091CA032191DC01A855BC4FA30F77
:10066000B11D2C930196F3CF8091CA03680F60935C
:10067000CA0380E0089581E0089582E00895089516
:1006800081E090E030914F0220914E02321710F439
:1006900080E090E0919581959109089580914F02B5
:1006A00090914E02891730F48F5F80934F0280E063
:1006B00090E008958FEF9FEF089580914E0290E0B3
:1006C00020914F02821B91090895CF92DF92EF9201
:1006D000FF920F931F93CF93DF937C01262F972FC9
:1006E0008A0180915B02882391F0C62FD72F6E017B
:1006F000C40ED51ECC15DD0571F06991D701ED91C1
:10070000FC910190F081E02DC7010995F3CF642F92
:10071000822F0E941703C801DF91CF911F910F9183
:10072000FF90EF90DF90CF900895CF93DF931F92CB
:10073000CDB7DEB7698320915B022223D1F02091EF
:100740005E02203240F021E030E0FC01338322835E
:1007500080E090E015C080915C02E82FF0E0ED5E53
:10076000FB4F998190838F5F80935C0280935E0240
:1007700005C061E0CE0101960E94170381E090E080
:100780000F90DF91CF9108950F931F930E94470A16
:100790006093730270937402809375029093760253
:1007A000E0916B02F0916C020484F585E02D8BE6FC
:1007B00092E0099597FF1FC00E94470A00917302BB
:1007C000109174022091750230917602DC01CB0108
:1007D000801B910BA20BB30B00916F021091700262
:1007E000209171023091720280179107A207B3071E
:1007F000B8F28FEF9FEF1F910F910895FC01809148
:100800000C0390910D03892B21F421E0309749F4DA
:1008100013C08091080390910903309731F421E0CF
:10082000FC018081882341F006C0BF010E942F197E
:1008300021E0892B09F020E0822F089520915E02AB
:1008400090915D02213208F04AC080915A028111D4
:10085000FCCF32E030935A0231E0309359023FEF3F
:10086000309312041092110420931004A3E1B4E019
:1008700040EF53E0FA013E2F341B321718F43D913C
:100880003193F9CF1092EF032091EF03990F922B40
:100890009093EF0390915802913061F410925802B6
:1008A0009091EF039093BB009091BC0093FDF8CF23
:1008B00095EC01C095EE9093BC0090915A02923055
:1008C000E1F3909112049F3F79F0809112048032FD
:1008D00041F080911204803331F084E005C081E062
:1008E00003C082E001C083E010925C0210925E02BD
:1008F00010925B0208950F931F93CF93DF93809123
:10090000A70391E090935B0280935D0210925C02DA
:1009100010925E0260E08FE592E00E949503C7E9C5
:10092000D3E08E0168818FE592E00E9495032296C4
:10093000F80161818FE592E00E949503F3E0C73AE8
:10094000DF0779F7DF91CF911F910F910C941E046F
:10095000E7E9F3E01192119283E0E73AF807D1F763
:100960000895009769F0FC0101900020E9F73197A4
:10097000AF01481B590BBC018BE692E00C94700848
:1009800080E090E00895CF93DF930E94B104EC01E2
:1009900081EC91E00E94B1048C0F9D1FDF91CF91FB
:1009A00008958F929F92AF92BF920F931F93CF9310
:1009B000DF93CDB7DEB7A1970FB6F894DEBF0FBEB9
:1009C000CDBF19A2423008F44AE08E010F5D1F4FDF
:1009D000842E912CA12CB12CA50194010E94021708
:1009E000E62FB901CA0101501109EA3014F4E05DA3
:1009F00001C0E95CD801EC93232B242B252B61F754
:100A0000C8010E94B104A1960FB6F894DEBF0FBED4
:100A1000CDBFDF91CF911F910F91BF90AF909F906D
:100A20008F900895CF92DF92EF92FF92CF93DF9352
:100A30006C01990FEE08FF08F7FE1AC0E0916B02F7
:100A4000F0916C020190F081E02D6DE28BE692E076
:100A50000995EC0166277727CB016C197D098E0972
:100A60009F094AE00E94D1047C01EC0EFD1E06C0E5
:100A70004AE0C701B6010E94D1047C0181EC91E0FB
:100A80000E94B1048E0D9F1DDF91CF91FF90EF90DA
:100A9000DF90CF900895CF93DF93E8E0F3E04481B7
:100AA0005581608171818BE692E00E947008EC01B3
:100AB00081EC91E00E94B1048C0F9D1FDF91CF91DA
:100AC0000895CF92DF92FF920F931F93CF93DF93FE
:100AD000F12CC0E0D0E000E010E0CE01805B9D4F43
:100AE0006C010115110511F0FF0C02C0F601F08038
:100AF000F7FE08C021E030E0AE01B8018DE793E0D9
:100B00000E9472100F5F1F4F0830110551F7219698
:100B1000C830D10501F7DF91CF911F910F91FF9060
:100B2000DF90CF900895FF920F931F93CF93DF93A1
:100B300000D000D0CDB7DEB70E94C403FC0197FD02
:100B400011C08D32910591F0C0970A9778F0E0912D
:100B50006B02F0916C020284F385E02D8BE692E04B
:100B60000995EACF60E070E0CB014CC020E030E0B6
:100B7000A901F12CE130F105F1F0ED32F105C9F0F8
:100B8000CF01C0970A97B8F4AAE0B0E00E94B1166E
:100B90008F01FF0F220B330BDC01CB01800F911F64
:100BA000A21FB31F9C01AD01205331094109510916
:100BB00002C0FF24F394E0916B02F0916C02028476
:100BC000F385E02D8BE692E029833A834B835C83A7
:100BD00009950E94C403FC01C09729813A814B8189
:100BE0005C810A9738F2E130F10521F2FF2041F0F3
:100BF00066277727CB01621B730B840B950B02C012
:100C0000CA01B9010F900F900F900F90DF91CF9113
:100C10001F910F91FF9008951F920F920FB60F92A0
:100C200011242F933F934F935F936F937F938F93F1
:100C30009F93AF93BF93EF93FF938091B900887F09
:100C4000803609F49CC068F5883209F45BC090F4E2
:100C5000803109F454C038F4882309F4F6C0883090
:100C600009F44DC0F6C0883109F44CC0803209F453
:100C70005DC0EFC0803409F468C048F4803309F4E3
:100C800055C0883309F0E5C080931204D8C0803580
:100C900009F44FC0883509F45DC0883409F0D9C023
:100CA000D6C0883909F4C7C0A8F4883709F467C0EA
:100CB00038F4883609F463C0803709F460C0C9C0CD
:100CC000883809F4B8C0803909F45FC0803809F069
:100CD000C0C05BC0803B09F486C038F4803A09F498
:100CE00066C0883A09F47FC0B4C0803C09F4A7C04C
:100CF000883C09F4A4C0883B09F48AC0AAC080914A
:100D0000EF0310C09091110480911004981770F5B2
:100D1000E091110481E08E0F80931104F0E0E05126
:100D2000FC4F80818093BB0085EC86C080931204C9
:100D30008EC0E091110481E08E0F809311048091A8
:100D4000BB00F0E0E051FC4F808390911104809152
:100D500010046EC0E091110481E08E0F80931104A5
:100D60008091BB00F0E0E051FC4F808380915902FC
:100D700081116DC081E08093580284EA61C083E0F4
:100D800080935A021092EE03CFCF8091EE0380320F
:100D900008F051C0E091EE0381E08E0F8093EE03E6
:100DA0008091BB00F0E0E253FC4F8083BDCF85EC27
:100DB0008093BC0010925A028091EE03803230F48E
:100DC000E091EE03F0E0E253FC4F10826091EE03FD
:100DD00070E0E091CC03F091CD038EEC93E00995A7
:100DE0001092EE0336C084E080935A021092CB0337
:100DF0001092CA03E091C803F091C903099580914C
:100E0000CA03811105C081E08093CA031092A80330
:100E1000E091CB0381E08E0F8093CB03F0E0E855A7
:100E2000FC4F80818093BB009091CB038091CA03DB
:100E3000981708F479CF85E88093BC000AC085EC48
:100E40008093BC0010925A0204C0109212040E94B7
:100E50000D03FF91EF91BF91AF919F918F917F9182
:100E60006F915F914F913F912F910F900FBE0F9017
:100E70001F901895CF93DF93282F30E0F901E656A5
:100E8000FF4F8491F901EA57FF4FD491F901EE58D1
:100E9000FF4FC491CC2391F081110E947809EC2F6F
:100EA000F0E0EE0FFF1FE859FF4FA591B491EC91D0
:100EB000ED2381E090E021F480E002C080E090E04A
:100EC000DF91CF9108952F923F924F925F926F9250
:100ED0007F929F92AF92BF92CF92DF92EF92FF925A
:100EE0000F931F93CF93DF930E94470A00916A03E9
:100EF00010916B0320916C0330916D03AB01BC0129
:100F0000401B510B620B730B80917603909177031A
:100F1000A0E0B0E084179507A607B70710F0E12C12
:100F2000A7C0C0E080917403C81760F4E09170031B
:100F3000F0917103EC0FF11D62E080810E94D109F4
:100F4000CF5FF0CFF12CE12C412C512C3201439496
:100F500080917503F81608F081C00F2D10E0E09124
:100F60007203F0917303E00FF11F61E080810E9432
:100F7000D109E0917203F0917303E00FF11F60E07B
:100F800080810E94A109D301C2010F2C04C0880FE7
:100F9000991FAA1FBB1F0A94D2F71C015C01A094E1
:100FA000B094912C80917403981608F040C0C92C1D
:100FB000D12CE0917003F0917103EC0DFD1D808147
:100FC0000E943A0741E0892B09F040E0E6012496AF
:100FD000FE01EE0FFF1FE25FFC4F20813181002EEA
:100FE00002C0369527950A94E2F72170421711F056
:100FF000EE24E3948091700390917103FC01EC0D59
:10100000FD1D80810E943A07CC0FDD1FC25FDC4FBF
:10101000892B29F4888199818229932904C08881A8
:1010200099818A219B21998388839394BBCFE091F6
:101030007203F0917303E00FF11F61E080810E9461
:10104000A1098091720390917303FC01E00FF11FDD
:1010500060E080810E94D109F3947ACF0E94470A10
:1010600060936A0370936B0380936C0390936D039A
:101070008E2DDF91CF911F910F91FF90EF90DF9018
:10108000CF90BF90AF909F907F906F905F904F9068
:101090003F902F9008953FB7F894809182049091EB
:1010A0008304A0918404B091850426B5A89B05C053
:1010B0002F3F19F00196A11DB11D3FBFBA2FA92FD7
:1010C000982F8827820F911DA11DB11DBC01CD0154
:1010D00042E0660F771F881F991F4A95D1F7089540
:1010E000CF92DF92EF92FF920F931F93CF93DF93F4
:1010F0006C017A018B01C0E0D0E0CE15DF0589F0EC
:10110000D8016D918D01D601ED91FC910190F08196
:10111000E02DC6010995892B11F47E0102C02196AC
:10112000ECCFC701DF91CF911F910F91FF90EF900E
:10113000DF90CF900895FC01538D448D252F30E032
:10114000842F90E0821B930B541710F0CF960895D4
:1011500001970895FC01918D828D981761F0828D21
:10116000DF01A80FB11D5D968C91928D9F5F9F73DB
:10117000928F90E008958FEF9FEF0895FC01918D7D
:10118000828D981731F0828DE80FF11D858D90E0EA
:1011900008958FEF9FEF0895FC01918D228D892F87
:1011A00090E0805C9F4F821B91098F73992708956F
:1011B0008BE692E00E94CC0821E0892B09F420E024
:1011C000822F0895FC01848DDF01A80FB11DA35A61
:1011D000BF4F2C91848D90E001968F739927848F57
:1011E000A689B7892C93A089B1898C9180648C934E
:1011F000938D848D981306C00288F389E02D808139
:101200008F7D80830895EF92FF920F931F93CF936A
:10121000DF93EC0181E0888F9B8D8C8D981305C046
:10122000E889F989808185FD24C0F62E0B8D10E0B8
:101230000F5F1F4F0F731127E02E8C8DE8120CC02B
:101240000FB607FCFACFE889F989808185FFF5CFD1
:10125000CE010E94E208F1CF8B8DFE01E80FF11D57
:10126000E35AFF4FF0820B8FEA89FB89808180620D
:1012700007C0EE89FF896083E889F98980818064ED
:10128000808381E090E0DF91CF911F910F91FF90DB
:10129000EF900895CF93DF93EC01888D8823C9F0F8
:1012A000EA89FB89808185FD05C0A889B9898C916F
:1012B00086FD0FC00FB607FCF5CF808185FFF2CF0A
:1012C000A889B9898C9185FFEDCFCE010E94E208F3
:1012D000E7CFDF91CF91089580E090E0892B29F04E
:1012E0000E94D80881110C94000008950E942119D1
:1012F000833081F028F4813099F08230A1F0089594
:101300008730A9F08830B9F08430D1F48091800022
:101310008F7D03C0809180008F7780938000089537
:1013200084B58F7702C084B58F7D84BD0895809188
:10133000B0008F7703C08091B0008F7D8093B000A4
:1013400008951F93CF93DF93282F30E0F901E656DD
:10135000FF4F8491F901EA57FF4FD491F901EE58FC
:10136000FF4FC491CC23C9F0162F81110E94780938
:10137000EC2FF0E0EE0FFF1FE854FF4FA591B49162
:101380008FB7F894111105C09C91ED2FE095E923DA
:1013900002C0EC91ED2BEC938FBFDF91CF911F91A9
:1013A0000895CF93DF9390E0FC01EA57FF4F24911B
:1013B000FC01EE58FF4F8491882361F190E0880F83
:1013C000991FFC01E255FF4FC591D491FC01E854EF
:1013D000FF4FA591B491611109C09FB7F89488811E
:1013E000209582238883EC912E230BC0623061F418
:1013F0009FB7F8943881822F809583238883EC915E
:101400002E2B2C939FBF06C08FB7F894E8812E2B0C
:1014100028838FBFDF91CF9108958F929F92AF92D3
:10142000BF92CF92DF92EF92FF926B017C010E94FC
:101430004B084B015C01C114D104E104F104F1F04B
:101440000E944B08DC01CB0188199909AA09BB0944
:10145000883E9340A105B10570F321E0C21AD1087E
:10146000E108F10888EE880E83E0981EA11CB11CEB
:10147000C114D104E104F10419F7DDCFFF90EF901E
:10148000DF90CF90BF90AF909F908F9008952FB72F
:10149000F89460917E0470917F0480918004909113
:1014A00081042FBF08951F920F920FB60F9211243F
:1014B0002F933F938F939F93AF93BF9380917E041D
:1014C00090917F04A0918004B091810430917D04BB
:1014D00023E0230F2D3720F40196A11DB11D05C077
:1014E00026E8230F0296A11DB11D20937D04809351
:1014F0007E0490937F04A0938004B0938104809134
:10150000820490918304A0918404B0918504019693
:10151000A11DB11D8093820490938304A093840441
:10152000B0938504BF91AF919F918F913F912F917F
:101530000F900FBE0F901F9018950F931F93CF938E
:10154000DF93EC0188819981009729F02A813B8102
:101550002617370788F48B016F5F7F4F0E9457185B
:10156000009761F0998388831B830A832C813D81D6
:10157000232B11F4FC01108281E001C080E0DF9197
:10158000CF911F910F910895CF93DF93EC01888144
:101590009981009711F00E94BF17198218821D824D
:1015A0001C821B821A82DF91CF910895EF92FF92E5
:1015B0000F931F93CF93DF93EC017B018A01BA0154
:1015C0000E949D0A811104C0CE010E94C40A07C076
:1015D0001D830C83B701888199810E943819CE013F
:1015E000DF91CF911F910F91FF90EF900895CF93CE
:1015F000DF93EC01FB018617970761F06081718131
:101600006115710529F0448155810E94D60A02C0F6
:101610000E94C40ACE01DF91CF9108951F920F92CC
:101620000FB60F9211242F933F934F935F936F93B5
:101630007F938F939F93AF93BF93EF93FF938BE62B
:1016400092E00E94E208FF91EF91BF91AF919F91CC
:101650008F917F916F915F914F913F912F910F905B
:101660000FBE0F901F9018951F920F920FB60F92FA
:1016700011242F938F939F93EF93FF93E0917B021D
:10168000F0917C028081E0918102F091820282FDE2
:1016900012C09081809184028F5F8F7320918502A8
:1016A000821751F0E0918402F0E0E559FD4F958FEB
:1016B0008093840201C08081FF91EF919F918F916F
:1016C0002F910F900FBE0F901F901895FC0148307E
:1016D000510508F040C068307105E8F58589823011
:1016E00059F08330A1F08130C1F487E090E0841B91
:1016F000950BAB01BC0111C087E090E0DC01A61B9B
:10170000B70BBD01DC01A41BB50BAD0106C087E022
:1017100090E0861B970BBA01AC01695F7F4F677041
:101720007727440F551FE40FF51F81E090E002C0BA
:10173000880F991F6A95E2F7232B29F0228D338DAC
:10174000822B932B06C080959095228D338D82231A
:101750009323938F828F08950895FC016370658BA6
:101760008481958126813781613039F0633029F099
:1017700091878087338722870895318720879387D1
:10178000828708952F923F924F925F926F927F923D
:101790008F929F92AF92BF92CF92DF92EF92FF9281
:1017A0000F931F93CF93DF93CDB7DEB76C970FB630
:1017B000F894DEBF0FBECDBF9C8F8B8F1B012A011B
:1017C00018870F83FE82ED82CA82DC0158964D9104
:1017D0005C9159974115510509F0B2C018968D9149
:1017E0009C911997681779070CF096C11A968D91FC
:1017F0009C911B97481659060CF08EC1AC2CB12C4D
:10180000CB01B6E0CB9E800D911D11241816190650
:101810000CF082C1C50133E0880F991F3A95E1F7BA
:10182000840D951D181619060CF076C1AB8DBC8D74
:1018300057968C91811103C0203B08F02F5FAB8D30
:10184000BC8DED91FC9111970284F385E02DCD01C3
:101850002A8F09952A8DB5E02B9F900111246101F3
:1018600041011B82F901E219F309FA87E987920124
:10187000285F3F4F3C872B873B81353049F0E98516
:10188000FA85E80DF91DEE53FF4F4491498301C0DD
:10189000198232011201598150FF13C0AB8DBC8DEA
:1018A000ED91FC91BA81B13031F40484F585E02DDD
:1018B0002F81388519C00684F785E02DEF80F884E4
:1018C0001EC0ED81FE812F813885E217F307F1F00C
:1018D000AB8DBC8DED91FC91BA81B13059F404848B
:1018E000F585E02D2D813E81A301B4018B8D9C8D6A
:1018F00009950CC00684F785E02DED80FE808501FA
:101900009501A101B6018B8D9C8D0995E981E69524
:10191000E983FFEF6F1A7F0A2A0C3B1C2B853C855D
:101920006216730609F0B7CF3B813F5F3B834FEFF1
:10193000841A940ACA0CDB1C363009F09DCFCAC049
:10194000FA0134969491329765917491291BCB01D9
:10195000B7E02B9F800D911D1124FA012591349140
:101960003A8B298BFC0165907490FC01329634917E
:101970003D83319644914B873296C49031961491B1
:101980005A81523058F08C2C0C2C000C9908812F65
:10199000012E000C990B9C838B8304C01C821B823C
:1019A000812C912CAB8DBC8DED91FC911197028413
:1019B000F385E02DCD010995BA81AB2EB12C8A9C1F
:1019C000C0018B9C900D9A9C900D1124FC01E20D9E
:1019D000F31DF88BEF871982912C812CEC2DCC0C08
:1019E000FF0B91012E0F3F1F3A87298761013D812F
:1019F000C30ED11CA6014E0F5F1F5F8B4E8BC20121
:101A0000810F911D17FD9A95998F888F5B8585169B
:101A100008F060C0882D90E04B815C81480F591F11
:101A20004A9D90014B9D300D5A9D300D1124D901D6
:101A3000A40DB51DBE87AD87C984DA842F8438888C
:101A4000B981E985BE1BBB8B288D398D280F391FC5
:101A50003D8B2C8B8B898C0D2E893F89C216D3062A
:101A600099F1877041F4C3010196E989FA89E60D7D
:101A7000F71D94903C0197FE20C0AB8DBC8DED917D
:101A8000FC91BA81B13061F40484F585E02D2F8199
:101A900038854C895D89B6018B8D9C8D09950DC06B
:101AA0000684F785E02DEF80F884850195014D854A
:101AB0005E85B1018B8D9C8D0995990CEFEFCE1A47
:101AC000DE0A2A0C3B1CC6CF39814D81340F398385
:101AD00083949CCFAB8DBC8DED91FC9111970688C2
:101AE000F789E02DCD016C960FB6F894DEBF0FBEDE
:101AF000CDBFDF91CF911F910F91FF90EF90DF90BD
:101B0000CF90BF90AF909F908F907F906F905F909D
:101B10004F903F902F9009946C960FB6F894DEBFCB
:101B20000FBECDBFDF91CF911F910F91FF90EF902E
:101B3000DF90CF90BF90AF909F908F907F906F90ED
:101B40005F904F903F902F900895AF92BF92CF92A9
:101B5000EF92FF920F931F93CF93DF93EC01262F09
:101B6000888D998D009709F042C06A3069F42C89FC
:101B70008E859F8538E0239F800D911D11249F87BE
:101B80008E871D861C86ACC06D3009F4A9C08E8975
:101B90008823C1F03C898C859D8546E0349F800D6B
:101BA000911D112448855985841795075CF01D8681
:101BB0001C868E859F85E8E03E9F800D911D112437
:101BC0009F878E87EA88FB88088919894E855F85FB
:101BD0006C857D85CC88CE010E94C20B2C898C85BA
:101BE0009D85F6E02F9F800D911D112441C06A3024
:101BF00079F41D861C862C89FC013696E4918E852D
:101C00009F852E9F800D911D11249F878E8768C010
:101C10006D3009F465C0AC014C5F5F4FFA0134913F
:101C2000631708F45DC03196E491E61708F458C0D4
:101C3000FA014491362F341BFC013296A590B490E2
:101C4000F7E03F9FA00CB11C1124F50132963491AE
:101C50003196E491332311F0E1110DC0F501349672
:101C6000E4912C898C859D85E29F800D911D112426
:101C70009D878C8735C0F501359644915E89552343
:101C800011F16C89E32FF0E0E40FF11D47FDFA95A7
:101C90006E9FD0016F9FB00D11244C855D854A0F5A
:101CA0005B1FE885F9854E175F076CF01D861C8663
:101CB000FC013696E4918E859F856E9F800D911D67
:101CC00011249F878E87EA88FB88088919894E85A9
:101CD0005F856C857D85CC88CE010E94C20BBECF0E
:101CE00081E090E0DF91CF911F910F91FF90EF90F5
:101CF000CF90BF90AF9008956F927F928F929F92F6
:101D0000AF92BF92CF92DF92EF92FF920F931F9309
:101D1000CF93DF93EC014B015A0169013801E8814F
:101D2000F9810284F385E02D0995E881F981028823
:101D3000F389E02D87019601A501B401CE01099533
:101D4000E881F981A501460D571D415051090288CE
:101D5000F389E02D9601B401CE010995E881F9815E
:101D60000088F189E02D9301A501B401CE01099508
:101D7000E881F981C80CD91CB6016150710900884D
:101D8000F189E02D9301A501CE010995E881F98142
:101D90000688F789E02DCE01DF91CF911F910F9139
:101DA000FF90EF90DF90CF90BF90AF909F908F907B
:101DB0007F906F900994CF92DF92EF92FF920F93F2
:101DC0001F93CF93DF9300D000D000D0CDB7DEB704
:101DD0006C01DC01ED91FC916217730789F4041723
:101DE00015072CF4942F852FA801092F182F041BF9
:101DF000150B98012F5F3F4F048CF58DE02D12C01D
:101E00004017510709F5261737072CF4962F872F0F
:101E1000B901292F382F261B370B2F5F3F4F068C18
:101E2000F78DE02D8701C601099526960FB6F89427
:101E3000DEBF0FBECDBFDF91CF911F910F91FF90FD
:101E4000EF90DF90CF9008950284F385E02D2D83ED
:101E50003E834B835C8369837A830995D601ED9138
:101E6000FC910488F589E02D2D813E814B815C81B8
:101E700069817A81C6010995D601ED91FC910688A8
:101E8000F789E02DC60126960FB6F894DEBF0FBE87
:101E9000CDBFDF91CF911F910F91FF90EF90DF9019
:101EA000CF900994EF92FF920F931F93DC01ED9175
:101EB000FC9111971A960D911C911B9718962D91D4
:101EC0003C91199700A0F1A1E02D7B0140E050E08A
:101ED00060E070E009951F910F91FF90EF900895D9
:101EE0004F925F926F927F928F929F92AF92BF922A
:101EF000CF92DF92EF92FF920F931F93CF93DF93D6
:101F000000D0CDB7DEB76C015A0139014801DC01C0
:101F1000ED91FC910284F385E02D69837A83099524
:101F20006981462E7A81572E640C751CD601ED917D
:101F3000FC91461457046CF40088F189E02D870168
:101F40009401A501B201C6010995BFEF4B1A5B0AC6
:101F5000EDCF0688F789E02DC6010F900F90DF9135
:101F6000CF911F910F91FF90EF90DF90CF90BF9096
:101F7000AF909F908F907F906F905F904F9009945B
:101F8000AF92BF92CF92DF92EF92FF920F931F9387
:101F9000CF93DF9300D000D0CDB7DEB75C016901ED
:101FA000DC01ED91FC910284F385E02D4B835C8391
:101FB00069837A830995D501ED91FC9169817A81D4
:101FC0009B012C0D3D1D215031090488F589E02D20
:101FD00078014B815C818A01C5010995D501ED919C
:101FE000FC910688F789E02DC5010F900F900F90A6
:101FF0000F90DF91CF911F910F91FF90EF90DF90A5
:10200000CF90BF90AF900994AF92BF92CF92DF92E2
:10201000EF92FF920F931F93CF93DF9300D000D0E6
:10202000CDB7DEB75C016901DC01ED91FC91028462
:10203000F385E02D4B835C8369837A830995D50111
:10204000ED91FC914B815C81C40ED51EB1E0CB1AA1
:10205000D1080488F589E02D7801860169817A81AB
:102060009B01C5010995D501ED91FC910688F78981
:10207000E02DC5010F900F900F900F90DF91CF9141
:102080001F910F91FF90EF90DF90CF90BF90AF9096
:1020900009940895EF92FF920F931F93DC01ED9145
:1020A000FC9100A0F1A1E02D09951F910F91FF90E7
:1020B000EF9008950F931F93DC01ED91FC91068C36
:1020C000F78DE02D09951F910F9108950F931F93A0
:1020D000DC01ED91FC91048CF58DE02D09951F91AB
:1020E0000F910895DC01ED91FC910084F185E02DC4
:1020F000099408952F923F924F925F926F927F9230
:102100008F929F92AF92BF92CF92DF92EF92FF9207
:102110000F931F93CF93DF9300D01F92CDB7DEB7FD
:102120004C017B836A836A01590117019801241BC2
:10213000350B37FF03C0319521953109C5014A811F
:102140005B81841B950B97FF03C091958195910945
:1021500051E059838217930714F019820BC09A2D0E
:102160008B2D5801092F182F9A818B81DB82CA820F
:10217000C92ED82E8A819B81A816B9065CF49C2DA5
:102180008D2D6801092F182F9A818B81BB82AA821D
:10219000A92EB82E2501AA81BB814A1A5B0A3801F3
:1021A0006C187D0877FE03C0719461947108720108
:1021B00057FE03C0BFEFEB1AFB0AF594E794C01675
:1021C000D1061CF00FEF1FEF1FC001E010E01CC094
:1021D000D401ED91FC91B9810484F585E02D910144
:1021E000BB23C1F04A815B81B601C4010995E618A1
:1021F000F708F7FE04C0C00ED11EE40CF51CEA81FE
:10220000FB813196FB83EA834A815B81A416B50684
:10221000FCF604C0A6016A817B81E7CF0F900F9086
:102220000F90DF91CF911F910F91FF90EF90DF9072
:10223000CF90BF90AF909F908F907F906F905F9066
:102240004F903F902F900895089580E090E008957A
:10225000862F0C943A07862F642F0C94A109862FA1
:10226000642F0C94D1090F931F93CF93DF93C7E092
:10227000D0E00E94A80400E010E021E030E0A801D6
:10228000BE018DE793E00E94660B0F5F1F4F083081
:10229000110599F70E947B0464E670E080E090E00D
:1022A0000E940D0A219728F7C0E0D0E00E94A80400
:1022B00000E010E021E030E0A801BE018DE793E0EE
:1022C0000E94660B0F5F1F4F0830110599F70E949F
:1022D0007B0464E670E080E090E00E940D0A2196A5
:1022E000C830D10519F70E94A8040E947B0480E041
:1022F000DF91CF911F910F9108952F923F924F92AE
:102300005F926F927F928F929F92AF92BF92CF9285
:10231000DF92EF92FF921F93CF93DF93CDB7DEB79B
:102320002C970FB6F894DEBF0FBECDBF40E050E053
:1023300063EC71E088E093E00E94D60A10923404C6
:102340001092330486E293E09C878B8780E5282EE9
:1023500082E0382E9DE6892E94E0992EE12CF12C16
:1023600010E0412C512C320143946E0197E0C90ECC
:10237000D11CEB85FC85B290A290FC87EB87209165
:10238000330430913404E6E1F3E087E090E0D401D7
:10239000A80FB91FA501082E02C0569547950A94AB
:1023A000E2F741704C93419151910E2C02C0569529
:1023B00047950A94E2F7DA01A170BB2740FF0CC0F1
:1023C000B301A201082E04C0440F551F661F771FDA
:1023D0000A94D2F7142B0CC0B301A201082E04C03A
:1023E000440F551F661F771F0A94D2F74095142398
:1023F0002A0F3B1F019758F630933404209333047F
:102400001A8219821C821B821E821D8268E073E080
:10241000CE0101960E94F70A4AE0B601812F90E0B2
:102420000E947C16F60101900020E9F731975F01C8
:10243000AC18BD088D819E81A114B104C9F0A80E0D
:10244000B91EB501CE0101960E949D0A882361F054
:1024500029813A818D819E81B601820F931F0E944E
:102460003819BE82AD8204C0CE0101960E94C40A12
:10247000BE016F5F7F4F88E093E00E94F70A898179
:102480009A810E94BF171A8219821C821B821E82A7
:102490001D8268E073E0CE0101960E94F70AAD80CC
:1024A000BE808FEFA81AB80AB501CE0101960E942E
:1024B0009D0A8823E9F129813A818D819E816FEB04
:1024C00071E0820F931F0E943819BE82AD82BE0157
:1024D0006F5F7F4F88E093E00E94F70A89819A81BD
:1024E0000E94BF17F10111931F01FFEFEF1AFF0ABE
:1024F00048E0841A910888E0E816F10409F039CF21
:102500002C960FB6F894DEBF0FBECDBFDF91CF91F2
:102510001F91FF90EF90DF90CF90BF90AF909F9072
:102520008F907F906F905F904F903F902F90089585
:10253000CE0101960E94C40ACACF10926202109284
:10254000610288EE93E0A0E0B0E080936302909394
:102550006402A0936502B09366022AE531E03093ED
:10256000600220935F0210926E0210926D028093BF
:102570006F0290937002A0937102B09372028CE686
:1025800091E090936C0280936B0285EC90E09093C5
:1025900078028093770284EC90E090937A028093A3
:1025A000790280EC90E090937C0280937B0281EC36
:1025B00090E090937E0280937D0282EC90E0909375
:1025C000800280937F0286EC90E090938202809359
:1025D000810210928402109285021092860210925B
:1025E00087021092800310927F0388E090E090931E
:1025F0008203809381039093840380938303909359
:1026000086038093850390938803809387031092B9
:10261000920310928A031092890310928C031092F5
:102620008B0381E0809391032FEF3FEF3093900372
:1026300020938F0330938E0320938D038093930315
:1026400010929403109296031092950388E891E0FB
:1026500090937E0380937D031092100310921403D5
:1026600010921303109215038EE791E090930F03DD
:1026700080930E0380E090E0FC01E25FFC4F148E3B
:1026800010A2178E11A206968C339105A9F788E047
:1026900091E0909371038093700380E091E09093B8
:1026A00073038093720388E08093740380937503AF
:1026B00080E191E090936F0380936E038AE090E055
:1026C000909377038093760384EF91E0909379035E
:1026D0008093780310927C0310927B0310926A031C
:1026E00010926B0310926C0310926D0310927A0398
:1026F000109209031092080310920B0310920A0320
:1027000010920D0310920C0340E150E060EB71E079
:1027100088E093E00C94D60A789484B5826084BDF6
:1027200084B5816084BD85B5826085BD85B58160D5
:1027300085BD80916E00816080936E001092810053
:10274000809181008260809381008091810081600E
:1027500080938100809180008160809380008091CF
:10276000B10084608093B1008091B000816080935B
:10277000B00080917A00846080937A0080917A0022
:10278000826080937A0080917A00816080937A00E1
:1027900080917A00806880937A001092C100E09165
:1027A0007B02F0917C0282E08083E0917702F091DD
:1027B00078021082E0917902F0917A0280E18083C0
:1027C00010928302E0917F02F091800286E0808384
:1027D000E0917D02F0917E02808180618083E091B2
:1027E0007D02F0917E02808188608083E0917D028D
:1027F000F0917E02808180688083E0917D02F0917B
:102800007E0280818F7D808384EC91E00E94C304EE
:1028100064E670E080E090E00E940D0A8AE090E0BB
:10282000909377038093760380ED97E090937903FC
:102830008093780380E78093A70310924F02109251
:102840004E0210925C0210925E0210925A02C1E097
:10285000C09359021092580261E082E10E94A109DE
:1028600061E083E10E94A1098091B9008E7F80938D
:10287000B9008091B9008D7F8093B90088E480937E
:10288000B80085E48093BC008091A703C0935B02ED
:1028900080935D0210925C0210925E0261E28FE50D
:1028A00092E00E9495030E941E048091A703C093AA
:1028B0005B0280935D0210925C0210925E0261E8FE
:1028C0008FE592E00E9495030E941E048091A70369
:1028D000C0935B0280935D0210925C0210925E02D4
:1028E0006FEE8FE592E00E9495030E941E0463E064
:1028F0008DE793E00E94AD0B0E94A8040E947B0428
:102900000E9463070E947D110E943311809133045D
:10291000909134040397D4F50E9463078823B1F3A0
:102920000E947D113EE0E32E33E0F32E00E010E044
:10293000C0E0D0E0F701808591850C2E02C096950D
:1029400087950A94E2F780FF08C021E030E0AE01ED
:10295000B8018DE793E00E94660B0E947B042196EC
:10296000C830D10539F70F5F1F4F22E0E20EF11C8E
:1029700008301105E9F68091330490913404892BD5
:1029800029F60E94A8040E947B04C0CFC1E0809178
:10299000330490913404419734F0E0E5F2E023EC05
:1029A00030E093EC2DC080EF91E00E94FE03811196
:1029B000F4CF0E946307882351F30E947D110E9487
:1029C000A8040E9461050E947B040E944B0580912F
:1029D0003304909134040E94120580ED91E00E942E
:1029E000FE038823A1F2C0937C0485EE91E00E944F
:1029F000C30464E670E080E090E00E940D0AC7CF57
:102A00008081A901481B51091416150624F4492F89
:102A1000481B842F01C0835C819382E0E835F8076E
:102A200079F70E94A8040E9461050E947B04C1E01E
:102A300003EC10E0D3EC82E292E00E94FE038111ED
:102A400040C080EF91E00E94FE0381113AC00E94D5
:102A50006307882381F383E092E00E94FE038823CA
:102A600061F0C0937C0485EE91E00E94C30464E6AB
:102A700070E080E090E00E940D0A0E947D11E0E588
:102A8000F2E080819801281B31091216130624F404
:102A90009D2F981B892F01C0835C819322E0E8352C
:102AA000F20779F70E94A8040E9461050E947B0446
:102AB0000E944B0580913304909134040E941205CA
:102AC000BACF0E94331183E492E00E94C30488E0ED
:102AD000A82EB12C992493948BE692E00E94CC0806
:102AE000181619060CF04CC06AE070E080E090E027
:102AF0000E940D0A8BE692E00E94AA08833619F420
:102B00000E94A8043AC08F36C1F50E94A8040E9412
:102B100093056B017C010E949305960121503109B8
:102B20002830310578F4AB01415051094830510546
:102B300048F4B5016C197D0921E030E08DE793E0A0
:102B40000E94660B0E9493056B017C010E94930515
:102B50009601215031092830310578F4AB014150FC
:102B600051094830510548F4B5016C197D0921E03F
:102B700030E08DE793E00E94660B0E947B04ACCFAF
:102B80000E946307882309F48BC080917C04813004
:102B900009F063C09EE0E92E93E0F92E25E3C22EF2
:102BA00024E0D22E00E010E0C0E0D0E0F601EC0F0F
:102BB000FD1F8080F701808591850C2E02C09695BF
:102BC00087950A94E2F781709927282D30E08217C3
:102BD000930741F10E94A80421E030E0AE01B80162
:102BE0008DE793E00E94660B81100CC04091760443
:102BF00050E06091750470E021E030E08DE793E0F3
:102C00000E94660B8091750490E08017910711F087
:102C1000009375048091760490E08C179D0711F065
:102C2000C09376042196C830D10509F0BFCF0F5F5D
:102C30001F4F42E0E40EF11C88E0C80ED11C0830A2
:102C4000110509F0B1CF909277040E947B046AE0ED
:102C500070E080E090E00E940D0A0E947D110E94C9
:102C6000470A009178041091790420917A043091F8
:102C70007B04601B710B820B930B4AE00E94D10412
:102C800081EC91E00E94B1040E944B050E94470A2A
:102C9000609378047093790480937A0490937B0412
:102CA000809177048823F9F080917C048130D9F4F5
:102CB0000E94470A009178041091790420917A04C7
:102CC00030917B04DC01CB01801B910BA20BB30B79
:102CD00089389341A105B10530F00E94A8040E94F3
:102CE0007B04109277040E946C09F6CE8091080351
:102CF000909109030C94BF17BB274A3031F49923F4
:102D000022F4BDE2909581959F4F0C948816BB27C5
:102D1000FB015527AA27880F991FAA1FA41710F097
:102D2000A41B83955051B9F7A05DAA3308F0A95DA3
:102D3000A193009779F7B111B1931192CB010C9443
:102D4000A116DC01FC01672F71917723E1F732971F
:102D500004C07C916D9370836291AE17BF07C8F376
:102D600008950E94F316A59F900DB49F900DA49F07
:102D7000800D911D112408952F923F924F925F92E2
:102D80006F927F928F929F92AF92BF92CF92DF927B
:102D9000EF92FF920F931F93CF93DF93CDB7DEB7E0
:102DA000CA1BDB0B0FB6F894DEBF0FBECDBF099474
:102DB0002A88398848885F846E847D848C849B84CB
:102DC000AA84B984C884DF80EE80FD800C811B81D9
:102DD000AA81B981CE0FD11D0FB6F894DEBF0FBE08
:102DE000CDBFED010895A29FB001B39FC001A39F85
:102DF000700D811D1124911DB29F700D811D112434
:102E0000911D0895A1E21A2EAA1BBB1BFD010DC046
:102E1000AA1FBB1FEE1FFF1FA217B307E407F5078A
:102E200020F0A21BB30BE40BF50B661F771F881F66
:102E3000991F1A9469F760957095809590959B01FC
:102E4000AC01BD01CF010895EE0FFF1F0590F49175
:102E5000E02D0994CF93DF938230910510F482E046
:102E600090E0E0918804F091890420E030E0C0E037
:102E7000D0E0309711F14081518148175907C0F0D7
:102E80004817590761F482819381209719F09B8339
:102E90008A832BC0909389048093880426C02115CF
:102EA000310519F04217530718F49A01BE01DF01EA
:102EB000EF010280F381E02DDCCF2115310509F10E
:102EC000281B390B2430310590F412968D919C917A
:102ED00013976115710521F0FB019383828304C070
:102EE0009093890480938804FD01329644C0FD01CB
:102EF000E20FF31F81939193225031092D933C935C
:102F00003AC02091860430918704232B41F420910C
:102F1000520130915301309387042093860420910D
:102F20005001309151012115310541F42DB73EB7C3
:102F30004091540150915501241B350BE0918604BA
:102F4000F0918704E217F307A0F42E1B3F0B28171C
:102F5000390778F0AC014E5F5F4F2417350748F012
:102F60004E0F5F1F50938704409386048193919383
:102F700002C0E0E0F0E0CF01DF91CF9108950F9320
:102F80001F93CF93DF93009709F48CC0FC01329715
:102F90001382128200918804109189040115110591
:102FA00081F420813181820F931F2091860430911A
:102FB00087042817390779F5F0938704E09386048E
:102FC00071C0D80140E050E0AE17BF0750F4129630
:102FD0002D913C911397AD012115310509F1D901CE
:102FE000F3CF9D01DA013383228360817181860FE3
:102FF000971F8217930769F4EC0128813981260F06
:10300000371F2E5F3F4F318320838A819B819383BB
:103010008283452B29F4F0938904E093880442C00D
:103020001396FC93EE931297ED01499159919E01ED
:10303000240F351FE217F30771F480819181840F0B
:10304000951F029611969C938E938281938113967D
:103050009C938E931297E0E0F0E0D80112968D9148
:103060009C911397009719F0F8018C01F6CF8D9180
:103070009C9198012E5F3F4F820F931F20918604F1
:10308000309187042817390769F4309729F4109292
:1030900089041092880402C013821282109387045C
:1030A00000938604DF91CF911F910F910895A0E0C6
:1030B000B0E0EDE5F8E10C94C016EC01009721F4C6
:1030C000CB010E942A17B8C0FC01E60FF71F9C0134
:1030D00022503109E217F30708F4ACC0D9010D9171
:1030E0001C91119706171707B0F00530110508F469
:1030F0009FC0C80104978617970708F499C002502B
:103100001109061B170B019311936D937C93CF014B
:103110000E94BF178DC05B01A01AB10A4C01800E3E
:10312000911EA0918804B091890440E050E0E12C08
:10313000F12C109709F44AC0A815B905D1F56D9086
:103140007C901197630182E0C80ED11CCA14DB0485
:1031500080F1A3014A195B096A0182E0C80ED11C03
:103160001296BC9012971396AC91B5E0CB16D10491
:1031700040F0B282A38351834083D9016D937C9345
:103180000AC00E5F1F4FC301800F911FF901918389
:103190008083EB2DFA2FE114F10431F0D70113965F
:1031A000FC93EE93129744C0F0938904E093880453
:1031B0003FC08D919C9111974817590708F4AC01B5
:1031C0007D0112960D90BC91A02DB3CF8091860405
:1031D0009091870488159905E1F446175707C8F4BC
:1031E0008091500190915101009741F48DB79EB7A5
:1031F0004091540150915501841B950BE817F90734
:10320000C8F4F0938704E0938604F9017183608326
:103210000FC0CB010E942A177C01009759F0A8012A
:10322000BE010E942619CE010E94BF17C70104C02B
:10323000CE0102C080E090E0CDB7DEB7EEE00C94A6
:10324000DC1681E090E0F8940C943F19FB01DC015E
:1032500002C001900D9241505040D8F70895FB01F3
:10326000DC018D91019080190110D9F3990B08951B
:10327000FB01DC0101900D920020E1F7089512E0BE
:10328000C2EED2E004C0FE010E9424172196C33E84
:08329000D107C9F7F894FFCF44
:103298000D02030411100F0E0C0B0A09080706058E
:1032A800313233343536373861626364656667684E
:1032B80041424344454647482642237B282D425FE6
:1032C800696A6B6C6D6E6F70494A4B4C4D4E4F502E
:1032D800717273747576777851525354555657589E
:1032E80000008A0480000000000095036503251192
:1032F8003F035D034E03400300000000030970080C
:103308009B084A09CC08AA08BE08000000002F1133
:103318002B11281100000000A50D7008251124119B
:10332800660B791072104A1066105A107A104910FC
:10333800AD0BAC0B0410C00F700F520FDB0E7C0EE0
:10334800302E302E302E302E302E302E302E302E85
:10335800000D0A0048454C4C4F20574F524C440032
:103368003132392E302E302E302E302E302E302E57
:103378003132392E004C4544204D4F444520310010
:10338800302E302E302E32342E32342E302E302E37
:10339800302E0036362E3139352E3139352E313929
:1033A800352E3139352E3139352E3139352E3636DF
:1033B8002E003139352E3139352E3139352E313906
:1033C800352E3139352E3139352E3139352E3139C1
:0E33D800352E0049204D205245414459000039
:00000001FF
